:0400000049EF0EF0C6
:101000000001001000000100104C6F5261206C6F55
:101010006164206F7074696D616C207265676973BB
:101020007465722076616C7565730D0A004C6F52A1
:101030006120736574206672657175656E63790DE4
:101040000A0030313233343536373839414243447F
:101050004546005472616E736D697474696E672ED3
:101060000D0A00536574204C6F5261204D6F64650A
:101070000D0A004C6F52612053746172740D0A00A6
:101080005265672025583A25580D0A005458204DBE
:071090006F64650D0A00000A
:101098000450800B0D6E04500424136E03AE57EFFA
:1010A80008F059EF08F05AEF08F013801350D8B43D
:1010B80060EF08F062EF08F075EF08F01328D8A485
:1010C80068EF08F06AEF08F072EF08F0000E016EA2
:1010D800000E026E000E036E000E046E038E7DEF8E
:1010E80008F0000E016E000E026E000E036E000E78
:1010F800046E0850800B0D1A08500824126E07AEB3
:1011080088EF08F08AEF08F08BEF08F01280125091
:10111800D8B491EF08F093EF08F0A6EF08F0122882
:10112800D8A499EF08F09BEF08F0A3EF08F0000EA1
:10113800056E000E066E000E076E000E086E078E16
:10114800AEEF08F0000E056E000E066E000E076E7C
:10115800000E086E1250D8B4B4EF08F0B6EF08F0DD
:10116800BEEF08F01350D8A4BCEF08F0BEEF08F0AB
:10117800C8EF08F0000E016E000E026E000E036E3E
:10118800000E046E60EF0AF007500102F3CF18F06A
:10119800F4CF19F018500E6E0F6A106A116A1950C0
:1011A800146E156A166A176A06500202F3CF18F011
:1011B800F4CF19F018500E26000E0F22102211221B
:1011C80019501426000E1522162217220550030264
:1011D800F3CF18F0F4CF19F018500E26000E0F2296
:1011E8001022112219501426000E15221622172239
:1011F80010C011F00FC010F00EC00FF00E6A0550AD
:101208000202F3CF18F0F4CF19F018500E26195037
:101218000F22000E1022000E112206500102F3CFF9
:1012280018F0F4CF19F018500E2619500F22000E9E
:101238001022000E112210C011F00FC010F00EC0C5
:101248000FF00E6A05500102F3CF18F0F4CF19F031
:1012580018500E2619500F22000E1022000E1122CF
:1012680007500202F3CF18F0F4CF19F018501426E3
:1012780019501522000E1622000E172206500302DE
:10128800F3CF18F0F4CF19F018501426195015227E
:10129800000E1622000E172207500302F3CF18F093
:1012A800F4CF19F01850096E19500A6E0B6A0C6ABF
:1012B8000BC00CF00AC00BF009C00AF0096A09500B
:1012C80014260A5015220B5016220C5017220EC055
:1012D80009F00FC00AF010C00BF011C00CF0190E85
:1012E8007BEF09F0D8900C320B320A320932E82E23
:1012F80076EF09F0095014260A5015220B501622D1
:101308000C50172210C011F00FC010F00EC00FF0D3
:101318000E6A125013C009F00A6A0926000E0A2242
:10132800820E0924186EFF0E0A20196EB1EF09F01B
:10133800D890143615361636173611AEA6EF09F0C2
:10134800A8EF09F0A9EF09F01480D8900E360F36EF
:10135800103611361806D8A0190616AEB6EF09F0E1
:10136800B8EF09F09CEF09F0000E126E11AEBFEF56
:1013780009F0C1EF09F0E5EF09F0FF0E0E14096E50
:10138800FF0E0F140A6EFF0E10140B6E7F0E111451
:101398000C6E09500A100B100C10D8B4D6EF09F0D7
:1013A800D8EF09F0DCEF09F0010E126EE5EF09F055
:1013B80014A0E1EF09F0E3EF09F0E5EF09F0D8EF49
:1013C80009F01250D8B4EBEF09F0EDEF09F011EF86
:1013D8000AF0010E1426000E15221622172217A055
:1013E800F8EF09F0FAEF09F011EF0AF014C009F06C
:1013F80015C00AF016C00BF017C00CF00C340C32F4
:101408000B320A32093209C014F00AC015F00BC0B9
:1014180016F00CC017F0184A192A19BE1CEF0AF06A
:10142800195008E11828D8A01CEF0AF01EEF0AF09E
:1014380028EF0AF0000E146E000E156E800E166E60
:101448007F0E176E56EF0AF019BE35EF0AF01950E5
:1014580006E11804D8B033EF0AF035EF0AF041EF8F
:101468000AF0000E146E000E156E000E166E000EB9
:10147800176E000E0D6E56EF0AF018C013F0FF0E2F
:101488001416FF0E15167F0E1616000E171613A04B
:1014980050EF0AF052EF0AF053EF0AF0168ED89088
:1014A8001330176E0D50171214C001F015C002F05A
:1014B80016C003F017C004F01200066E38EC0EF0E8
:1014C8002EEC0EF021EC0EF0340E056EF20EE82E26
:1014D800FED7052EFCD7D90E016E060EC8EC0DF00E
:1014E800000E016E070EC8EC0DF0000E016E080E1E
:1014F800C8EC0DF08F0E016E090EC8EC0DF0090E48
:10150800016E0A0EC8EC0DF02B0E016E0B0EC8EC26
:101518000DF0230E016E0C0EC8EC0DF0000E016EDE
:101528000E0EC8EC0DF0000E016E0F0EC8EC0DF09B
:10153800000E016E100EC8EC0DF0000E016E110EBB
:10154800C8EC0DF0000E016E130EC8EC0DF0720E13
:10155800016E1D0EC8EC0DF0700E016E1E0EC8EC6B
:101568000DF0640E016E1F0EC8EC0DF0000E016E3A
:10157800200EC8EC0DF0080E016E210EC8EC0DF01F
:10158800FF0E016E230EC8EC0DF0000E016E240E46
:10159800C8EC0DF0000E016E250EC8EC0DF0040E1F
:1015A800016E260EC8EC0DF0450E016E2F0EC8EC2C
:1015B8000DF0550E016E300EC8EC0DF0C30E016E25
:1015C800310EC8EC0DF0270E016E330EC8EC0DF08D
:1015D800030E016E360EC8EC0DF00A0E016E370EC2
:1015E800C8EC0DF006C001F0390EC8EC0DF0490E3C
:1015F800016E3A0EC8EC0DF0090E016E4B0EC8ECE8
:101608000DF0840E016E4D0EC8EC0DF01C0E016E2F
:10161800610EC8EC0DF00E0E016E620EC8EC0DF0F6
:101628005B0E016E630EC8EC0DF0CC0E016E640EFD
:10163800C8EC0DF0D00E016E700EC8EC0DF0120063
:101648000A0E0E6E000E0F6EAFEF0BF0250E14187B
:10165800D8B431EF0BF033EF0BF038EF0BF0145038
:1016680052EC0EF0AFEF0BF008C0F6FF09C0F7FF21
:10167800084A092A0800F5CF14F01450000AD8B413
:10168800C0EF0BF0580AD8B450EF0BF0200AD8B4CA
:1016980050EF0BF0AFEF0BF00EC0D9FF0FC0DAFF21
:1016A800DECF11F0DDCF12F0020E0E26000E0F2253
:1016B800010E146E1450020D010EF324F66E100E76
:1016C800F420F76E0900F550115C0900F550125826
:1016D800D8B071EF0BF073EF0BF075EF0BF07FEFF5
:1016E8000BF0142A040E1418D8A47DEF0BF07FEF2A
:1016F8000BF05EEF0BF014C013F0A6EF0BF011C067
:1017080001F012C002F01350020D010EF324F66E20
:10171800100EF420F76E0900F5CF03F00A00F5CF9C
:1017280004F054EC0DF001500F0B106E420E102413
:10173800F66EF76A100EF7220800F5CF14F0145071
:1017480052EC0EF013061328D8A4ADEF0BF0AFEF50
:101758000BF083EF0BF008C0F6FF09C0F7FF084A4B
:10176800092A0800F5CF14F01450D8A4BEEF0BF0E6
:10177800C0EF0BF02AEF0BF012001C341D34236E5F
:101788002350D8A4CAEF0BF0CCEF0BF0D6EF0BF038
:10179800000E1A6E000E1B6E000E1C6E000E1D6EE3
:1017A80043EF0CF01AC01EF01BC01FF01CC020F045
:1017B8001DC021F0200EE6EF0BF0D8902132203228
:1017C8001F321E32E82EE1EF0BF01E50226E1C8EE7
:1017D800FF0E1A16FF0E1B16FF0E1C16000E1D1606
:1017E800960E235E23BEFDEF0BF0FBEF0BF013EF1D
:1017F8000CF02350800A970FD8B005EF0CF007EFD4
:101808000CF009EF0CF0CCEF0BF0D8901D321C3225
:101818001B321A32233E09EF0CF02BEF0CF01F0E8F
:10182800236419EF0CF01BEF0CF023EF0CF0CCEF56
:101838000BF0D8901A361B361C361D36230623505B
:10184800D8A429EF0CF02BEF0CF01DEF0CF0225070
:10185800D8B431EF0CF033EF0CF03BEF0CF01D1E59
:101868001C1E1B1E1A6C000E1B221C221D221AC0D5
:101878001AF01BC01BF01CC01CF01DC01DF012008C
:10188800929089900F01389192928992389392940C
:101898008984389592968996389792988998929AD9
:1018A800899A389B929C899C929E899E8A90939053
:1018B80039918A82939239938A94939439958A9626
:1018C800939639978A98939839998A9A939A399BD3
:1018D8008A9C939C8A9E939E8B908B9294928B94D5
:1018E80094943A958B9694963A978B9894983A99BB
:1018F8008B9A949A3A9B8B9C949C3A9D8B9E949E2F
:101908003A9F95908C903B9195823B9395948C94BB
:101918003B9595968C863B9795988C983B99959A8C
:101928008C9A3B9B959C8C9C3B9D959E8C9E3B9F4B
:1019380096908D903C9196928D923C9396948D942E
:101948003C95C290429F3F8F3F8D3F8B3F893F8799
:101958003F853F833F813F853F833F693E693D69BE
:101968001200700ED312D396D28E9B8C0DEC0EF013
:10197800000E2F6EA00E306E580E316E440E326E71
:10198800550E336E09EC0DF0340E356EF20EE82E5E
:10199800FED7352EFCD738EC0EF0340E356EF20E2D
:1019A800E82EFED7352EFCD744EC0CF003008D84CE
:1019B800020E366E040E356EBA0EE82EFED7352EA0
:1019C800FCD7362EFAD700D08D82020E366E040E62
:1019D800356EBA0EE82EFED7352EFCD7362EFAD73E
:1019E80000D08D80020E366E040E356EBA0EE82ECB
:1019F800FED7352EFCD7362EFAD700D08D908D9293
:101A08008D94DAEF0CF000EF00F0730E086E100EF4
:101A1800096E24EC0BF00F013895958295989590F6
:101A280095963B933B993B973B918C863E9F3F9580
:101A38006C986D8C6D8E6C50F00B02096C6E6C8A14
:101A4800630E086E100E096E24EC0BF0340E346E23
:101A5800F20EE82EFED7342EFCD72EEC0EF0340E04
:101A6800346EF20EE82EFED7342EFCD7090E086E1F
:101A7800100E096E24EC0BF0335061EC0AF02D0EB9
:101A8800086E100E096E24EC0BF02FC024F030C045
:101A980025F031C026F032C027F08EEC0DF0120090
:101AA800000E066E000E056E03500410D8B45FEFEA
:101AB8000DF061EF0DF089EF0DF0010E076E69EF83
:101AC8000DF0D89003360436072A04AE6EEF0DF0F9
:101AD80070EF0DF065EF0DF0D8900536063603501F
:101AE800015C04500258D8A07CEF0DF07EEF0DF099
:101AF80083EF0DF00350015E0450025A0580D89020
:101B080004320332072E70EF0DF005C001F006C055
:101B180002F01200000E056E000E066E800E076EB3
:101B2800460E086E24C001F025C002F026C003F05E
:101B380027C004F04CEC08F001C01AF002C01BF0FA
:101B480003C01CF004C01DF0C1EC0BF01AC02BF050
:101B58001BC02CF01CC02DF01DC02EF02DC028F08D
:101B68002CC029F02BC02AF028C001F0060EC8ECC2
:101B78000DF029C001F0070EC8EC0DF02AC001F0E5
:101B8800080EC8EC0DF01200026EA49E8C96060E8C
:101B9800E82EFED700D002508009026E02C06FFF07
:101BA800A4AED9EF0DF0DBEF0DF0D4EF0DF0A49E4D
:101BB800060EE82EFED700D001C06FFFA4AEE7EFF7
:101BC8000DF0E9EF0DF0E2EF0DF0060EE82EFED76E
:101BD80000D08C86A49E6F501200016EA49E8C9635
:101BE80001C06FFFA4AEFBEF0DF0FDEF0DF0F6EFB7
:101BF8000DF0A49E000E6F6EA4AE05EF0EF007EF79
:101C08000EF000EF0EF0A49E8C866FCF02F002500B
:101C1800120092948994060E016E300EE82EFED7BB
:101C2800012EFCD700D092841A0E016EF80EE82E11
:101C3800FED7012EFCD700D012004EEC0EF0046E39
:101C48000450F80B046E04500109046E045042EC71
:101C58000EF012004EEC0EF0046E04508009046E73
:101C6800045042EC0EF012004EEC0EF0046E0450DC
:101C7800F80B046E045042EC0EF01200036E03C021
:101C880001F0010EC8EC0DF01200000EF86E000114
:0E1C9800B5EF0CF0010EF1EC0DF01200120091
:020000040020DA
:08000000FFFFFFFFFFFFFFFF00
:020000040030CA
:0E000000FF281C27FFBD85FF0FC00FE00F403B
:00000001FF
